S02B00002F55736572732F726F62636861706D2F54696D627265576F726B732F436C69656E74732F4E52432F2E
S31508080090F82100204F040808890308088B03080874
S315080800A08D0308088F030808910308080000000054
S315080800B00000000000000000000000009303080884
S315080800C0950308080000000097030808250B080888
S315080800D09B0308089D0308089F030808A103080846
S315080800E0A3030808A5030808A7030808A903080816
S315080800F0AB030808AD030808AF030808B1030808E6
S31508080100B3030808B5030808650B0808B9030808FF
S31508080110BB030808BD030808BF030808C103080885
S31508080120C3030808C5030808C7030808C903080855
S31508080130CB030808CD030808CF030808D103080825
S31508080140D3030808D5030808D7030808D9030808F5
S31508080150DB030808DD030808DF030808E1030808C5
S31508080160E3030808750B0808E7030808550B080889
S31508080170EB030808ED030808EF030808F103080865
S31508080180F3030808F5030808F7030808F903080835
S31508080190FB030808FD030808FF0308080104080804
S315080801A00304080805040808150B0808350B080889
S315080801B00B0408080D0408080F04080811040808A1
S315080801C01304080815040808170408081904080871
S315080801D01B0408081D0408081F0408082104080841
S315080801E02304080825040808450B080829040808EC
S315080801F02B0408082D0408082F04080831040808E1
S3150808020033040808350408083704080800000000FD
S31508080210390408083B0408083D0408083F04080888
S315080802204104080843040808450408084704080858
S31108080230490408084B0408084D0408088F
S3150808023C3349072291438D46324933480A1A06D060
S3150808024C0722914381F30988022282F314882F48DE
S3150808025C2F49304A00F043F82F483049304A00F005
S3150808026C3EF830483049314A00F039F830483149B7
S3150808027C314A00F034F831483149324A00F02FF83F
S3150808028C31483249324A00F02AF832483249334A58
S3150808029C00F025F832483349002200F02BF832488A
S315080802AC3249002200F026F831483249091A082939
S315080802BC03DB00220260043001601E481E4988428E
S315080802CC05D00268043003B4904703BCF7E700204E
S315080802DC8646EC4600200021274A9047FEE78842C6
S315080802EC07D0521A05D0037801300B700131013A40
S315080802FCF9D17047884202D002700130FAE7704784
S3150808030CF8210020F8210020F8210020581D09089A
S3150808031CAC0100203C0900208C0408088C04080849
S3150808032C38F20808581D0908AC010020AC01002051
S3150808033C38F2080838F2080838F2080838F20808B3
S3150808034C38F2080838F2080838F2080838F20808A3
S3150808035C581D0908E82409083C0900203C0900200E
S3150808036C3C090020711D0020741D0020781D0020F2
S3150808037C781D0020F81D002085050808FEE7FEE70D
S3150808038CFEE7FEE7FEE7FEE7FEE7FEE7FEE7FEE723
S3150808039CFEE7FEE7FEE7FEE7FEE7FEE7FEE7FEE713
S315080803ACFEE7FEE7FEE7FEE7FEE7FEE7FEE7FEE703
S315080803BCFEE7FEE7FEE7FEE7FEE7FEE7FEE7FEE7F3
S315080803CCFEE7FEE7FEE7FEE7FEE7FEE7FEE7FEE7E3
S315080803DCFEE7FEE7FEE7FEE7FEE7FEE7FEE7FEE7D3
S315080803ECFEE7FEE7FEE7FEE7FEE7FEE7FEE7FEE7C3
S315080803FCFEE7FEE7FEE7FEE7FEE7FEE7FEE7FEE7B3
S3150808040CFEE7FEE7FEE7FEE7FEE7FEE7FEE7FEE7A2
S3150808041CFEE7FEE7FEE7FEE7FEE7FEE7FEE7FEE792
S3150808042CFEE7FEE7FEE7FEE7FEE7FEE7FEE7FEE782
S3150808043CFEE7FEE7FEE7FEE7FEE7FEE7FEE7FEE772
S3150808044CFEE70A48854600F01BF8094809490A4A8E
S3150808045C884204D00368136004300432F8E7074866
S3150808046C05490160FFF7E4BE704700000000032049
S3150808047C900008083C0208080000002008ED00E077
S3150808048C80B400AF124A124B1B6843F00103136081
S3150808049C0F4B00229A600E4A0D4B1B6823F0847387
S315080804AC23F4803313600A4B0A4A5A60084A084BE5
S315080804BC1B6823F480231360054B0022DA60064B6D
S315080804CC4FF000629A60BD465DF8047B704700BF22
S315080804DC003802401030002400ED00E080B500AF6B
S315080804EC03484FF40051012200F0ECFE80BD00BF12
S315080804FC0018024080B500AF03484FF4005100229B
S3150808050C00F0E0FE80BD00BF0018024080B582B03E
S3150808051C00AF0346FB7101E00CF078F9FB1D0548A2
S3150808052C1946012205F0EEF90346002BF4D10837D3
S3150808053CBD4680BD300A002080B582B000AFFB1DD1
S3150808054C094819460122002305F054F80346002BDE
S3150808055C03D10CF0A1FFFB7901E04FF0FF331846E5
S3150808056C0837BD4680BD00BF300A002080B500AFED
S3150808057C0CF066FD80BD00BF80B500AF04F08CFE9C
S3150808058C00F02EF800F04EF900F02AF900F068F899
S3150808059C00F08AF800F0AEF800F0DAF800F0FCF88B
S315080805AC0CF0A2FA06F0C4FCFFF798FF0B4B1B6875
S315080805BC0A4A1268126A42F001021A62074B1B6849
S315080805CC064A1268126842F001021A6006F006FF1B
S315080805DC0CF034FE0023184680BD00BFB409002071
S315080805EC80B592B000AF1C4A1B4B1B6C43F080536A
S315080805FC13641A4A194B1B6843F4404313600123C6
S3150808060CBB610523FB6102233B634FF480037B63C1
S3150808061C0823BB634FF4B473FB6302233B640423BC
S3150808062C7B6407F11803184604F0BCF804F0CAFDF5
S3150808063C0D237B600223BB600023FB604FF4C05379
S3150808064C3B614FF480537B613B1D1846052104F02A
S3150808065C01FB4837BD4680BD003802400070004093
S3150808066C80B582B000AF0E4B0E4A1A600C4B2D2281
S3150808067C5A600B4B00229A60094B4FF47A72DA606F
S3150808068C074805F049FE00233B6000237B603B4680
S3150808069C0348194606F0DEFA0837BD4680BD00BF82
S315080806AC3C0900200010004080B582B000AF0F4B03
S315080806BC0F4A1A600D4B2D225A600C4B00229A6071
S315080806CC0A4B0022DA60094805F026FE0748082175
S315080806DC05F07CFE00233B6000237B603B46034801
S315080806EC194606F0B7FA0837BD4680BD78090020C2
S315080806FC0014004080B588B000AF134B134A1A6033
S3150808070C114B5A225A60104B00229A600E4B08223B
S3150808071CDA600D4B00221A610B4805F0FDFD0A48F4
S3150808072C05F022FE30237B600023BB600023FB60A8
S3150808073C00237B613B1D04481946002205F090FFEF
S3150808074C2037BD4680BD00BFB409002000480140CB
S3150808075C80B500AF0E4B0F4A1A600D4B4FF4E132B9
S3150808076C5A600B4B00229A60094B0022DA60084B38
S3150808077C00221A61064B0C225A61054B00229A6113
S3150808078C034B0022DA61024804F0EEFE80BD00BF76
S3150808079CF00900200010014080B500AF0E4B0F4A37
S315080807AC1A600D4B4FF4E1325A600B4B00229A60D3
S315080807BC094B0022DA60084B00221A61064B0C22F8
S315080807CC5A61054B00229A61034B0022DA610248EA
S315080807DC04F0CAFE80BD00BF300A0020004800405D
S315080807EC80B500AF0E4A0E4B1B6B43F4001313630C
S315080807FC0B4A0B4B1B6B43F48003136346200021EF
S3150808080C002204F075FE462004F08EFE0E20002108
S3150808081C002204F06DFE0E2004F086FE80BD00BF93
S3150808082C0038024080B586B000AF294A284B1B6BA6
S3150808083C43F004031363264A254B1B6B43F08003CA
S3150808084C1363234A224B1B6B43F002031363204A98
S3150808085C1F4B1B6B43F0400313634FF400537B6029
S3150808086C1123BB600023FB6000233B613B1D194821
S3150808087C194600F071FB20237B600123BB6000231B
S3150808088CFB6000233B613B1D1248194600F064FBCC
S3150808089C4FF400537B600123BB600023FB600023E5
S315080808AC3B613B1D0C48194600F056FB4FF4C043F8
S315080808BC7B600123BB600023FB6000233B613B1D67
S315080808CC0648194600F048FB1837BD4680BD00BFD8
S315080808DC0038024000080240000402400018024092
S315080808EC80B500AF032004F0F9FD4FF0FF30002166
S315080808FC002204F0FDFD80BD80B588B000AF786095
S3150808090C7B681B68224A93420ED1224A214B1B6CE0
S3150808091C43F01003136436200021002204F0E8FD86
S3150808092C362004F001FE2FE07B681B681A4A9342AE
S3150808093C0ED1184A174B1B6C43F020031364372047
S3150808094C0021002204F0D4FD372004F0EDFD1BE04D
S3150808095C7B681B68114A934216D10E4A0D4B5B6C81
S3150808096C43F4802353644FF40073FB6002233B6102
S3150808097C00237B610323BB610323FB6107F10C038B
S3150808098C0748194600F0E8FA2037BD4680BD00BF6F
S3150808099C001000400038024000140040004801408E
S315080809AC0004024080B588B000AF78607B681B6885
S315080809BC4C4A934247D14C4A4B4B5B6C43F0100359
S315080809CC5364C023FB6002233B6101237B6100232C
S315080809DCBB610723FB6107F10C034448194600F071
S315080809ECBBFA434B434A1A60414B4FF000625A60B4
S315080809FC3F4B40229A603E4B0022DA603C4B4FF440
S31508080A0C80621A613A4B00225A61394B00229A6164
S31508080A1C374B0022DA61364B00221A62344B002215
S31508080A2C5A62334800F066FC7B68314A1A63304AC6
S31508080A3C7B68936325200021002204F059FD2520A4
S31508080A4C04F072FD4BE07B681B682B4A934246D12F
S31508080A5C254A254B1B6C43F4802313644FF44063D7
S31508080A6CFB6002233B6101237B610023BB610723DF
S31508080A7CFB6107F10C032148194600F06DFA204B67
S31508080A8C204A1A601E4B4FF000625A601C4B4022D3
S31508080A9C9A601B4B0022DA60194B00221A61184B14
S31508080AAC00225A61164B00229A61154B0022DA610C
S31508080ABC134B00221A62124B00225A62104800F095
S31508080ACC19FC7B680E4A1A630D4A7B6893632720C0
S31508080ADC0021002204F00CFD272004F025FD203700
S31508080AECBD4680BD00100140003802400004024093
S31508080AFC700A0020B864024000480040000802400A
S31508080B0CC00A00205860024080B500AF014805F0BD
S31508080B1C9FFC80BD3C09002080B500AF04F0FAFBA9
S31508080B2C04F01CFD80BD00BF80B500AF014805F078
S31508080B3C8FFC80BD7809002080B500AF014800F00D
S31508080B4C9FFC80BD700A002080B500AF014804F0F0
S31508080B5C57FF80BD300A002080B500AF014800F069
S31508080B6C8FFC80BDC00A002080B500AF014804F090
S31508080B7C47FF80BDF009002080B400AF024B184629
S31508080B8CBD465DF8047B7047C401002080B400AFED
S31508080B9C024B1846BD465DF8047B7047B401002025
S31508080BAC80B500AF024800F019F80346184680BD10
S31508080BBCB001002080B500AF024800F029F80346BA
S31508080BCC184680BDB001002080B500AF024800F079
S31508080BDCD1F80346184680BDB001002080B584B00C
S31508080BEC00AF78607B681D3307F10C02104619466E
S31508080BFC02220EF053FA07F10C03184600210A22B2
S31508080C0C0EF0FCF9034618461037BD4680BD00BFE2
S31508080C1C80B582B000AF78607B68143318464949AA
S31508080C2C03220EF081F90346002B01D1012384E037
S31508080C3C7B6814331846444903220EF075F90346A3
S31508080C4C002B01D1022378E07B68143318463F49F8
S31508080C5C03220EF069F90346002B01D103236CE035
S31508080C6C7B68143318463A4903220EF05DF9034695
S31508080C7C002B01D1042360E07B68143318463549E8
S31508080C8C03220EF051F90346002B01D1052354E033
S31508080C9C7B6814331846304903220EF045F9034687
S31508080CAC002B01D1062348E07B68143318462B49D8
S31508080CBC03220EF039F90346002B01D107233CE031
S31508080CCC7B6814331846264903220EF02DF9034679
S31508080CDC002B01D1082330E07B68143318462149C8
S31508080CEC03220EF021F90346002B01D1092324E02F
S31508080CFC7B68143318461C4903220EF015F903466B
S31508080D0C002B01D10A2318E07B68143318461749B7
S31508080D1C03220EF009F90346002B01D10B230CE02C
S31508080D2C7B6814331846124903220EF0FDF803465D
S31508080D3C002B01D10C2300E0002318460837BD46C2
S31508080D4C80BD00BF38F208083CF2080840F20808CB
S31508080D5C44F2080848F208084CF2080850F2080841
S31508080D6C54F2080858F208085CF2080860F20808F1
S31508080D7C64F2080890B587B000AF786000233B7416
S31508080D8C00237B740023BB7400233B7300237B73FB
S31508080D9C0023BB7300233B7200237B720023BB72B0
S31508080DAC7B68183307F110021046194602220EF012
S31508080DBC75F97B68203307F10C021046194602228E
S31508080DCC0EF06CF97B68233307F1080210461946AE
S31508080DDC02220EF063F907F11003184600210A22BD
S31508080DEC0EF00CF978617A6913465B001344DB003C
S31508080DFC1C4607F10C03184600210A220EF0FEF8C9
S31508080E0C03462344183B7B617A6913461B019B1AD4
S31508080E1C9B001C4607F10803184600210A220EF007
S31508080E2CEDF80346234418461C37BD4690BD00BF4B
S31508080E3C80B582B000AFFFF7C7FE0346FB8016489D
S31508080E4C0BF04AFF15480BF047FF15480BF044FF03
S31508080E5CFFF7A6FE034618460BF0B8FF11480BF029
S31508080E6C3BFFFFF7A7FE034618460BF0AFFF0D48E6
S31508080E7C0BF032FFFB88002019460BF051FF084887
S31508080E8C0BF02AFFFFF778FE034618460BF024FFEB
S31508080E9C0837BD4680BD00BF68F208086CF208081A
S31508080EAC74F2080878F2080880B586B000AF3B4695
S31508080EBC00221A60043300221A60043300221A60CE
S31508080ECC043300221A60043300221A600433002201
S31508080EDC1A700133FFF75AFE02463B461846114666
S31508080EEC11220EF051F83B46184605490EF03AF809
S31508080EFC3B4618460AF05EFC1837BD4680BD00BF4F
S31508080F0C7CF2080880B400AF084B1B69002B07DA7B
S31508080F1C064B074A5A60054B064A5A60002300E0F6
S31508080F2C01231846BD465DF8047B7047003C024011
S31508080F3C23016745AB89EFCD80B400AF054A054B4D
S31508080F4C1B6943F00043136100231846BD465DF838
S31508080F5C047B7047003C024080B487B000AF7860C9
S31508080F6C39600023FB600023BB6000233B61002328
S31508080F7C7B616BE17B69012202FA03F3FB603B6830
S31508080F8C1A68FB681340BB60BA68FB689A4240F05B
S31508080F9C5A813B685B68022B03D03B685B68122B4B
S31508080FAC22D17B69DA087B68083253F822303B6110
S31508080FBC7B6903F007039B001A460F239340DB4310
S31508080FCC3A6913403B613B681B697A6902F0070268
S31508080FDC920093403A6913433B617B69DA087B684C
S31508080FEC0832396943F822107B681B683B617B69B0
S31508080FFC5B001A4603239340DB433A6913403B616B
S3150808100C3B685B6803F003037A69520093403A69B4
S3150808101C13433B617B683A691A603B685B68012B2A
S3150808102C0BD03B685B68022B07D03B685B68112BB7
S3150808103C03D03B685B68122B2FD17B689B683B6196
S3150808104C7B695B001A4603239340DB433A691340D2
S3150808105C3B613B68DB687A69520093403A691343EB
S3150808106C3B617B683A699A607B685B683B617B691C
S3150808107C012202FA03F3DB433A6913403B613B68E6
S3150808108C5B6803F010031A097B6902FA03F33A69D9
S3150808109C13433B617B683A695A607B68DB683B613A
S315080810AC7B695B001A4603239340DB433A69134072
S315080810BC3B613B689B687A69520093403A691343CB
S315080810CC3B617B683A69DA603B685B6803F0805376
S315080810DC002B00F0B880624A614B5B6C43F4804382
S315080810EC5364604A7B699B08023352F823303B6188
S315080810FC7B6903F003039B001A460F239340DB43D3
S3150808110C3A6913403B617B68574A934237D07B68E8
S3150808111C564A934231D07B68554A93422BD07B6802
S3150808112C544A934225D07B68534A93421FD07B680E
S3150808113C524A934219D07B68514A934213D07B681A
S3150808114C504A93420DD07B684F4A934207D07B6826
S3150808115C4E4A934201D1092312E00A2310E00823C8
S3150808116C0EE007230CE006230AE0052308E004230F
S3150808117C06E0032304E0022302E0012300E000232F
S3150808118C7A6902F00302920093403A6913433B6169
S3150808119C34497B699B0802333A6941F823203C4B4E
S315080811AC1B683B61BB68DB433A6913403B613B6888
S315080811BC5B6803F48033002B03D03A69BB68134386
S315080811CC3B61334A3B691360314B5B683B61BB68CF
S315080811DCDB433A6913403B613B685B6803F40033AD
S315080811EC002B03D03A69BB6813433B61284A3B6911
S315080811FC5360274B9B683B61BB68DB433A691340D2
S3150808120C3B613B685B6803F48013002B03D03A698F
S3150808121CBB6813433B611E4A3B6993601C4BDB68EE
S3150808122C3B61BB68DB433A6913403B613B685B68C7
S3150808123C03F40013002B03D03A69BB6813433B61CC
S3150808124C134A3B69D3607B6901337B617B690F2B36
S3150808125C7FF690AE1C37BD465DF8047B704700BF19
S3150808126C00380240003801400000024000040240E1
S3150808127C00080240000C024000100240001402400C
S3150808128C00180240001C02400020024000240240BC
S3150808129C003C014080B485B000AF78600B467B8073
S315080812AC7B681A697B881340002B02D00123FB73D1
S315080812BC01E00023FB73FB7B18461437BD465DF823
S315080812CC047B704780B483B000AF78600B467B808C
S315080812DC13467B707B78002B03D07A887B689A61D7
S315080812EC03E07B881A047B689A610C37BD465DF85F
S315080812FC047B704780B485B000AF78600023FB6028
S3150808130C7B68002B01D1012357E07B68022283F8FE
S3150808131C35207B681B681B68FB60FA682A4B1340E8
S3150808132CFB607B685A687B689B681A437B68DB6832
S3150808133C1A437B681B691A437B685B691A437B6883
S3150808134C9B691A437B68DB691A437B681B6A1343D8
S3150808135CFA681343FB607B685B6A042B07D17B68C6
S3150808136CDA6A7B681B6B1343FA681343FB607B6862
S3150808137C1B68FA681A607B681B685B69FB60FB6804
S3150808138C23F00703FB607B685B6AFA681343FB6008
S3150808139C7B685B6A042B04D17B689B6AFA681343DF
S315080813ACFB607B681B68FA685A617B680022DA64FA
S315080813BC7B68012283F83520002318461437BD4666
S315080813CC5DF8047B704700BF3F8010F080B584B089
S315080813DC00AFF860B9607A603B60FB6893F8343004
S315080813EC012B01D1022346E0FB68012283F834203D
S315080813FCFB68022283F83520FB681B68FA681268B2
S3150808140C126822F001021A60F868B9687A683B68AB
S3150808141C03F09AF9FB681B68FA681268126842F0B6
S3150808142C10021A60FB681B68FA681268126842F0A0
S3150808143C08021A60FB681B68FA681268126842F098
S3150808144C04021A60FB681B68FA681268526942F04B
S3150808145C80025A61FB681B68FA681268126842F0BF
S3150808146C02021A60FB681B68FA681268126842F06E
S3150808147C01021A60002318461037BD4680BD00BF06
S3150808148C80B582B000AF78607B681B681A46784BC3
S3150808149C9A4272D9774B5A687B681B681946764BF9
S315080814AC994262D07B681B681946744B99425AD084
S315080814BC7B681B681946724B994252D07B681B6825
S315080814CC1946704B99424AD07B681B6819466E4B6D
S315080814DC994241D07B681B6819466C4B994238D09F
S315080814EC7B681B6819466A4B99422FD07B681B6820
S315080814FC1946684B994226D07B681B681946664B71
S3150808150C99421DD07B681B681946644B994214D0BE
S3150808151C7B681B681946624B99420BD07B681B681B
S3150808152C1946604B994202D14FF400231EE04FF03E
S3150808153C00731BE04FF4002318E04FF4002315E062
S3150808154C4FF4002312E04FF400730FE04FF40073C6
S3150808155C0CE04FF4007309E04FF4007306E0082317
S3150808156C04E0082302E0082300E008231340002BB4
S3150808157C14BF01230023DBB29FE17B681B681A465C
S3150808158C494B9A4240F292803A4B1A687B681B6818
S3150808159C1946394B994262D07B681B681946374BF2
S315080815AC99425AD07B681B681946354B994252D0D2
S315080815BC7B681B681946334B99424AD07B681B686B
S315080815CC1946314B994241D07B681B6819462F4BF3
S315080815DC994238D07B681B6819462D4B99422FD0EF
S315080815EC7B681B6819462B4B994226D07B681B6867
S315080815FC1946294B99421DD07B681B681946274BF7
S3150808160C994214D07B681B681946254B99420BD00E
S3150808161C7B681B681946234B994202D14FF4002361
S3150808162C1EE04FF000731BE04FF4002318E04FF44C
S3150808163C002315E04FF4002312E04FF400730FE073
S3150808164C4FF400730CE04FF4007309E04FF4007381
S3150808165C06E0082304E0082302E0082300E0082330
S3150808166C1340002B14BF01230023DBB225E100BF6E
S3150808167C586402400064024010600240106402403C
S3150808168C7060024070640240286002402864024078
S3150808169C8860024088640240406002404064024008
S315080816ACA0600240A0640240B86002407B681B68D0
S315080816BC1A46704B9A4272D96F4B5A687B681B68E4
S315080816CC19466E4B994262D07B681B6819466C4B57
S315080816DC99425AD07B681B6819466A4B994252D06C
S315080816EC7B681B681946684B99424AD07B681B6805
S315080816FC1946664B994241D07B681B681946644B58
S3150808170C994238D07B681B681946624B99422FD088
S3150808171C7B681B681946604B994226D07B681B6800
S3150808172C19465E4B99421DD07B681B6819465C4B5B
S3150808173C994214D07B681B6819465A4B99420BD0A8
S3150808174C7B681B681946584B994202D14FF40023FB
S3150808175C1EE04FF000731BE04FF4002318E04FF41B
S3150808176C002315E04FF4002312E04FF400730FE042
S3150808177C4FF400730CE04FF4007309E04FF4007350
S3150808178C06E0082304E0082302E0082300E00823FF
S3150808179C1340002B14BF01230023DBB28DE0364B14
S315080817AC1A687B681B681946344B99427ED07B6845
S315080817BC1B681946324B99425AD07B681B681946DE
S315080817CC304B994252D07B681B6819462E4B994266
S315080817DC4AD07B681B6819462C4B994241D07B68C2
S315080817EC1B6819462A4B994238D07B681B681946D8
S315080817FC284B99422FD07B681B681946264B994269
S3150808180C26D07B681B681946244B99421DD07B68E1
S3150808181C1B681946224B994214D07B681B681946D3
S3150808182C204B99420BD07B681B6819461E4B99426C
S3150808183C02D14FF400233AE04FF0007337E04FF427
S3150808184C002334E04FF4002331E04FF400232EE054
S3150808185C4FF400732BE04FF4007328E04FF4007331
S3150808186C25E04FF4007322E0082320E008231EE045
S3150808187C08231CE0586002400060024010600240D1
S3150808188C106402407060024070640240286002408E
S3150808189C286402408860024088640240406002401E
S315080818AC40640240A0600240A0640240082313402A
S315080818BC002B14BF01230023DBB2002B00F0108287
S315080818CC7B681B681B6803F00403002B00F008826E
S315080818DC7B681B687A681268126822F004021A6018
S315080818EC7B681B681A46A04B9A426CD99F4A7B6838
S315080818FC1B6819469E4B994262D07B681B68194629
S3150808190C9C4B99425AD07B681B6819469A4B994244
S3150808191C52D07B681B681946984B99424AD07B6803
S3150808192C1B681946964B994241D07B681B68194621
S3150808193C944B994238D07B681B681946924B994246
S3150808194C2FD07B681B681946904B994226D07B6822
S3150808195C1B6819468E4B99421DD07B681B6819461D
S3150808196C8C4B994214D07B681B6819468A4B99424A
S3150808197C0BD07B681B681946884B994202D14FF4E1
S3150808198C00231EE04FF000731BE04FF4002318E009
S3150808199C4FF4002315E04FF4002312E04FF40073BC
S315080819AC0FE04FF400730CE04FF4007309E04FF4A2
S315080819BC007306E0082304E0082302E0082300E085
S315080819CC0823D36076E17B681B681A46744B9A42DF
S315080819DC6CD9664A7B681B681946654B994262D06E
S315080819EC7B681B681946634B99425AD07B681B68F7
S315080819FC1946614B994252D07B681B6819465F4B4E
S31508081A0C99424AD07B681B6819465D4B994241D066
S31508081A1C7B681B6819465B4B994238D07B681B68F0
S31508081A2C1946594B99422FD07B681B681946574B50
S31508081A3C994226D07B681B681946554B99421DD086
S31508081A4C7B681B681946534B994214D07B681B68EC
S31508081A5C1946514B99420BD07B681B6819464F4B54
S31508081A6C994202D14FF400231EE04FF000731BE095
S31508081A7C4FF4002318E04FF4002315E04FF4002325
S31508081A8C12E04FF400730FE04FF400730CE04FF4B8
S31508081A9C007309E04FF4007306E0082304E00823F2
S31508081AAC02E0082300E00823936003E17B681B68BF
S31508081ABC1A463C4B9A4240F291803B4A7B681B6813
S31508081ACC19462B4B994200F086807B681B68194689
S31508081ADC284B99427DD07B681B681946264B994238
S31508081AEC75D07B681B681946244B99426DD07B6860
S31508081AFC1B681946224B994264D07B681B681946A1
S31508081B0C204B99425BD07B681B6819461E4B994239
S31508081B1C52D07B681B6819461C4B994249D07B687E
S31508081B2C1B6819461A4B994240D07B681B6819469C
S31508081B3C184B994214D07B681B681946164B994260
S31508081B4C0BD07B681B681946144B994202D14FF483
S31508081B5C002341E04FF000733EE04FF400233BE0CE
S31508081B6C4FF4002338E000BF586402400064024072
S31508081B7C10600240106402407060024070640240B3
S31508081B8C2860024028640240886002408864024043
S31508081B9C4060024040640240A0600240A0640240D3
S31508081BACB860024058600240006002404FF40023B7
S31508081BBC12E04FF400730FE04FF400730CE04FF487
S31508081BCC007309E04FF4007306E0082304E00823C1
S31508081BDC02E0082300E00823D3606BE07B4A7B68A5
S31508081BEC1B6819467A4B994262D07B681B6819465A
S31508081BFC784B99425AD07B681B681946764B99429A
S31508081C0C52D07B681B681946744B99424AD07B6834
S31508081C1C1B681946724B994241D07B681B68194652
S31508081C2C704B994238D07B681B6819466E4B99429B
S31508081C3C2FD07B681B6819466C4B994226D07B6853
S31508081C4C1B6819466A4B99421DD07B681B6819464E
S31508081C5C684B994214D07B681B681946664B99429F
S31508081C6C0BD07B681B681946644B994202D14FF412
S31508081C7C00231EE04FF000731BE04FF4002318E016
S31508081C8C4FF4002315E04FF4002312E04FF40073C9
S31508081C9C0FE04FF400730CE04FF4007309E04FF4AF
S31508081CAC007306E0082304E0082302E0082300E092
S31508081CBC082393607B68DB6C43F001027B68DA6463
S31508081CCC7B68042283F835207B68002283F8342045
S31508081CDC7B689B6C002B03D07B689B6C7868984751
S31508081CEC7B681B681A46464B9A4240F28F80454BCE
S31508081CFC5A687B681B681946354B99425ED07B68CF
S31508081D0C1B681946334B994256D07B681B6819468B
S31508081D1C314B99424ED07B681B6819462F4B994212
S31508081D2C46D07B681B6819462D4B99423ED07B6872
S31508081D3C1B6819462B4B994236D07B681B68194683
S31508081D4C294B99422ED07B681B681946274B994212
S31508081D5C26D07B681B681946254B99421DD07B688B
S31508081D6C1B681946234B994214D07B681B6819467D
S31508081D7C214B99420BD07B681B6819461F4B994215
S31508081D8C02D14FF480331AE04FF4800317E04FF46E
S31508081D9C803314E04FF4803311E04FF480330EE0AF
S31508081DAC40230CE040230AE0402308E0402306E0E1
S31508081DBC154B04E0144B02E0134B00E0124B13408E
S31508081DCC002B14BF01230023DBB29AE10060024002
S31508081DDC1060024010640240706002407064024051
S31508081DEC28600240286402408860024088640240E1
S31508081DFC4060024040640240A0600240A064024071
S31508081E0C5864024000640240010080007B681B6825
S31508081E1C1A469A4B9A426ED9994B1A687B681B686C
S31508081E2C1946984B99425ED07B681B681946964B9F
S31508081E3C994256D07B681B681946944B99424ED0E2
S31508081E4C7B681B681946924B994246D07B681B6877
S31508081E5C1946904B99423ED07B681B6819468E4B9F
S31508081E6C994236D07B681B6819468C4B99422ED0FA
S31508081E7C7B681B6819468A4B994226D07B681B686F
S31508081E8C1946884B99421DD07B681B681946864BA0
S31508081E9C994214D07B681B681946844B99420BD017
S31508081EAC7B681B681946824B994202D14FF48033DA
S31508081EBC1AE04FF4800317E04FF4803314E04FF41C
S31508081ECC803311E04FF480330EE040230CE04023B6
S31508081EDC0AE0402308E0402306E0764B04E0754BFD
S31508081EEC02E0744B00E0734B1340002B14BF01231C
S31508081EFC0023DBB205E17B681B681A466E4B9A42CF
S31508081F0C6ED96E4B5A687B681B6819465D4B9942A5
S31508081F1C5ED07B681B6819465B4B994256D07B6822
S31508081F2C1B681946594B99424ED07B681B6819464B
S31508081F3C574B994246D07B681B681946554B9942AC
S31508081F4C3ED07B681B681946534B994236D07B683A
S31508081F5C1B681946514B99422ED07B681B68194643
S31508081F6C4F4B994226D07B681B6819464D4B9942AC
S31508081F7C1DD07B681B6819464B4B994214D07B6855
S31508081F8C1B681946494B99420BD07B681B6819463E
S31508081F9C474B994202D14FF480331AE04FF4800329
S31508081FAC17E04FF4803314E04FF4803311E04FF404
S31508081FBC80330EE040230CE040230AE0402308E077
S31508081FCC402306E03B4B04E03A4B02E0394B00E071
S31508081FDC384B1340002B14BF01230023DBB290E0C7
S31508081FEC364B1A687B681B681946264B994200F0CB
S31508081FFC81807B681B681946234B994278D07B6885
S3150808200C1B681946214B994270D07B681B68194680
S3150808201C1F4B994268D07B681B6819461D4B994219
S3150808202C60D07B681B6819461B4B994258D07B684D
S3150808203C1B681946194B994250D07B681B68194678
S3150808204C174B994248D07B681B681946154B994219
S3150808205C3FD07B681B681946134B994236D07B6868
S3150808206C1B681946114B99422DD07B681B68194673
S3150808207C0F4B994224D14FF480333CE0B8600240A8
S3150808208C006402401060024010640240706002400E
S3150808209C7064024028600240286402408860024046
S315080820AC886402404060024040640240A0600240D6
S315080820BCA06402400100800058600240006002409B
S315080820CC4FF4800317E04FF4803314E04FF4803351
S315080820DC11E04FF480330EE040230CE040230AE06D
S315080820EC402308E0402306E07F4B04E07E4B02E0E1
S315080820FC7D4B00E07C4B1340002B14BF01230023B7
S3150808210CDBB2002B00F01C827B681B685B6903F04A
S3150808211C8003002B00F014827B681B687A681268A7
S3150808212C526922F080025A617B681B681A466F4B03
S3150808213C9A4268D96E4A7B681B6819466D4B994250
S3150808214C5ED07B681B6819466B4B994256D07B68E0
S3150808215C1B681946694B99424ED07B681B68194609
S3150808216C674B994246D07B681B681946654B99425A
S3150808217C3ED07B681B681946634B994236D07B68F8
S3150808218C1B681946614B99422ED07B681B68194601
S3150808219C5F4B994226D07B681B6819465D4B99425A
S315080821AC1DD07B681B6819465B4B994214D07B6813
S315080821BC1B681946594B99420BD07B681B681946FC
S315080821CC574B994202D14FF480331AE04FF48003E7
S315080821DC17E04FF4803314E04FF4803311E04FF4D2
S315080821EC80330EE040230CE040230AE0402308E045
S315080821FC402306E03C4B04E03B4B02E03A4B00E03C
S3150808220C394BD36086E17B681B681A46454B9A425C
S3150808221C40F28A80364A7B681B681946354B9942C0
S3150808222C5ED07B681B681946334B994256D07B6837
S3150808223C1B681946314B99424ED07B681B68194660
S3150808224C2F4B994246D07B681B6819462D4B9942E9
S3150808225C3ED07B681B6819462B4B994236D07B684F
S3150808226C1B681946294B99422ED07B681B68194658
S3150808227C274B994226D07B681B681946254B9942E9
S3150808228C1DD07B681B681946234B994214D07B686A
S3150808229C1B681946214B99420BD07B681B68194653
S315080822AC1F4B994202D14FF480331AE04FF480033E
S315080822BC17E04FF4803314E04FF4803311E04FF4F1
S315080822CC80330EE040230CE040230AE0402308E064
S315080822DC402306E0044B04E0034B02E0024B00E003
S315080822EC014B936016E100BF010080005864024058
S315080822FC006402401060024010640240706002409C
S3150808230C70640240286002402864024088600240D3
S3150808231C886402404060024040640240A060024063
S3150808232CA0640240B86002407B681B681A46694B71
S3150808233C9A4268D9684A7B681B681946674B99425A
S3150808234C5ED07B681B681946654B994256D07B68E4
S3150808235C1B681946634B99424ED07B681B6819460D
S3150808236C614B994246D07B681B6819465F4B994264
S3150808237C3ED07B681B6819465D4B994236D07B68FC
S3150808238C1B6819465B4B99422ED07B681B68194605
S3150808239C594B994226D07B681B681946574B994264
S315080823AC1DD07B681B681946554B994214D07B6817
S315080823BC1B681946534B99420BD07B681B68194600
S315080823CC514B994202D14FF480331AE04FF48003EB
S315080823DC17E04FF4803314E04FF4803311E04FF4D0
S315080823EC80330EE040230CE040230AE0402308E043
S315080823FC402306E0454B04E0444B02E0434B00E01F
S3150808240C424BD36086E0344A7B681B681946334BC3
S3150808241C99427DD07B681B681946314B994256D030
S3150808242C7B681B6819462F4B99424ED07B681B68EC
S3150808243C19462D4B994246D07B681B6819462B4B77
S3150808244C99423ED07B681B681946294B994236D067
S3150808245C7B681B681946274B99422ED07B681B68E4
S3150808246C1946254B994226D07B681B681946234B77
S3150808247C99421DD07B681B681946214B994214D082
S3150808248C7B681B6819461F4B99420BD07B681B68DF
S3150808249C19461D4B994202D14FF4803339E04FF453
S315080824AC800336E04FF4803333E04FF4803330E062
S315080824BC4FF480332DE040232BE0402329E04023BA
S315080824CC27E0402325E0114B23E0104B21E00F4B66
S315080824DC1FE000BF586002400060024010600240CE
S315080824EC1064024070600240706402402860024022
S315080824FC28640240886002408864024040600240B2
S3150808250C40640240A0600240A064024001008000BA
S3150808251C854B93607B68DB6C43F002027B68DA6454
S3150808252C7B68042283F835207B68002283F83420DC
S3150808253C7B689B6C002B03D07B689B6C78689847E8
S3150808254C7B681B681A46794B9A4272D9784B5A6833
S3150808255C7B681B681946774B994262D07B681B685F
S3150808256C1946754B99425AD07B681B681946734BA2
S3150808257C994252D07B681B681946714B99424AD0C6
S3150808258C7B681B6819466F4B994241D07B681B6858
S3150808259C19466D4B994238D07B681B6819466B4BA4
S315080825AC99422FD07B681B681946694B994226D0E5
S315080825BC7B681B681946674B99421DD07B681B6854
S315080825CC1946654B994214D07B681B681946634BA8
S315080825DC99420BD07B681B681946614B994202D104
S315080825EC4FF480231EE04FF080731BE04FF48023D2
S315080825FC18E04FF4802315E04FF4802312E04FF4CB
S3150808260C80730FE04FF480730CE04FF4807309E085
S3150808261C4FF4807306E0534B04E0524B02E0514BDF
S3150808262C00E0504B1340002B14BF01230023DBB2E8
S3150808263CA7E17B681B681A464B4B9A4240F2968070
S3150808264C3B4B1A687B681B6819463A4B994262D009
S3150808265C7B681B681946384B99425AD07B681B68A5
S3150808266C1946364B994252D07B681B681946344B27
S3150808267C99424AD07B681B681946324B994241D015
S3150808268C7B681B681946304B994238D07B681B689F
S3150808269C19462E4B99422FD07B681B6819462C4B2A
S315080826AC994226D07B681B6819462A4B99421DD035
S315080826BC7B681B681946284B994214D07B681B689B
S315080826CC1946264B99420BD07B681B681946244B2E
S315080826DC994202D14FF480231EE04FF080731BE019
S315080826EC4FF4802318E04FF4802315E04FF4802329
S315080826FC12E04FF480730FE04FF480730CE04FF43C
S3150808270C807309E04FF4807306E0164B04E0154B0A
S3150808271C02E0144B00E0134B1340002B14BF0123A3
S3150808272C0023DBB22DE100BF01008000586402408B
S3150808273C0064024010600240106402407060024057
S3150808274C706402402860024028640240886002408F
S3150808275C886402404060024040640240A06002401F
S3150808276CA064024004008000B86002407B681B68BD
S3150808277C1A46714B9A4272D9704B5A687B681B6811
S3150808278C19466F4B994262D07B681B6819466D4B84
S3150808279C99425AD07B681B6819466B4B994252D09A
S315080827AC7B681B681946694B99424AD07B681B6833
S315080827BC1946674B994241D07B681B681946654B85
S315080827CC994238D07B681B681946634B99422FD0B7
S315080827DC7B681B681946614B994226D07B681B682F
S315080827EC19465F4B99421DD07B681B6819465D4B89
S315080827FC994214D07B681B6819465B4B99420BD0D7
S3150808280C7B681B681946594B994202D14FF48023A9
S3150808281C1EE04FF080731BE04FF4802318E04FF44A
S3150808282C802315E04FF4802312E04FF480730FE0F1
S3150808283C4FF480730CE04FF4807309E04FF48073FF
S3150808284C06E04B4B04E04A4B02E0494B00E0484B88
S3150808285C1340002B14BF01230023DBB291E0374B3E
S3150808286C1A687B681B681946354B994200F08280B2
S3150808287C7B681B681946334B99425AD07B681B6888
S3150808288C1946314B994252D07B681B6819462F4B0F
S3150808289C99424AD07B681B6819462D4B994241D0F8
S315080828AC7B681B6819462B4B994238D07B681B6882
S315080828BC1946294B99422FD07B681B681946274B12
S315080828CC994226D07B681B681946254B99421DD018
S315080828DC7B681B681946234B994214D07B681B687E
S315080828EC1946214B99420BD07B681B6819461F4B16
S315080828FC994202D14FF480233DE04FF080733AE0B9
S3150808290C4FF4802337E04FF4802334E04FF48023C8
S3150808291C31E04FF480732EE04FF480732BE04FF4BC
S3150808292C807328E04FF4807325E0114B23E0104B95
S3150808293C21E00F4B1FE000BF5860024000600240C0
S3150808294C10600240106402407060024070640240D5
S3150808295C2860024028640240886002408864024065
S3150808296C4060024040640240A0600240A0640240F5
S3150808297C04008000804B1340002B14BF012300234E
S3150808298CDBB2002B00F02C827B681B681B6803F0F3
S3150808299C0203002B00F024827B681B687A6812688D
S315080829AC126822F002021A607B681B681A46734B77
S315080829BC9A426CD9724A7B681B681946714B9942BC
S315080829CC62D07B681B6819466F4B99425AD07B684C
S315080829DC1B6819466D4B994252D07B681B68194679
S315080829EC6B4B99424AD07B681B681946694B9942C6
S315080829FC41D07B681B681946674B994238D07B6867
S31508082A0C1B681946654B99422FD07B681B68194673
S31508082A1C634B994226D07B681B681946614B9942C9
S31508082A2C1DD07B681B6819465F4B994214D07B6886
S31508082A3C1B6819465D4B99420BD07B681B6819466F
S31508082A4C5B4B994202D14FF480231EE04FF08073FA
S31508082A5C1BE04FF4802318E04FF4802315E04FF45D
S31508082A6C802312E04FF480730FE04FF480730CE068
S31508082A7C4FF4807309E04FF4807306E03E4B04E08C
S31508082A8C3D4B02E03C4B00E03B4BD36092E17B6844
S31508082A9C1B681A46474B9A4240F28E80384A7B681E
S31508082AAC1B681946374B994262D07B681B681946CE
S31508082ABC354B99425AD07B681B681946334B994251
S31508082ACC52D07B681B681946314B99424AD07B68A9
S31508082ADC1B6819462F4B994241D07B681B681946C7
S31508082AEC2D4B994238D07B681B6819462B4B994253
S31508082AFC2FD07B681B681946294B994226D07B68C8
S31508082B0C1B681946274B99421DD07B681B681946C2
S31508082B1C254B994214D07B681B681946234B994256
S31508082B2C0BD07B681B681946214B994202D14FF486
S31508082B3C80231EE04FF080731BE04FF4802318E0C7
S31508082B4C4FF4802315E04FF4802312E04FF480737A
S31508082B5C0FE04FF480730CE04FF4807309E04FF4E0
S31508082B6C807306E0044B04E0034B02E0024B00E0DA
S31508082B7C014B93601EE100BF0400800058640240B4
S31508082B8C0064024010600240106402407060024003
S31508082B9C706402402860024028640240886002403B
S31508082BAC886402404060024040640240A0600240CB
S31508082BBCA0640240B86002407B681B681A466D4BD5
S31508082BCC9A426CD96C4A7B681B6819466B4B9942B6
S31508082BDC62D07B681B681946694B99425AD07B6840
S31508082BEC1B681946674B994252D07B681B6819466D
S31508082BFC654B99424AD07B681B681946634B9942C0
S31508082C0C41D07B681B681946614B994238D07B685A
S31508082C1C1B6819465F4B99422FD07B681B68194667
S31508082C2C5D4B994226D07B681B6819465B4B9942C3
S31508082C3C1DD07B681B681946594B994214D07B687A
S31508082C4C1B681946574B99420BD07B681B68194663
S31508082C5C554B994202D14FF480231EE04FF08073EE
S31508082C6C1BE04FF4802318E04FF4802315E04FF44B
S31508082C7C802312E04FF480730FE04FF480730CE056
S31508082C8C4FF4807309E04FF4807306E0474B04E071
S31508082C9C464B02E0454B00E0444BD3608AE0364A83
S31508082CAC7B681B681946354B994200F081807B680E
S31508082CBC1B681946324B99425AD07B681B681946C9
S31508082CCC304B994252D07B681B6819462E4B994251
S31508082CDC4AD07B681B6819462C4B994241D07B68AD
S31508082CEC1B6819462A4B994238D07B681B681946C3
S31508082CFC284B99422FD07B681B681946264B994254
S31508082D0C26D07B681B681946244B99421DD07B68CC
S31508082D1C1B681946224B994214D07B681B681946BE
S31508082D2C204B99420BD07B681B6819461E4B994257
S31508082D3C02D14FF480233CE04FF0807339E04FF40E
S31508082D4C802336E04FF4802333E04FF4802330E0B9
S31508082D5C4FF480732DE04FF480732AE04FF4807398
S31508082D6C27E04FF4807324E0104B22E00F4B20E049
S31508082D7C0E4B1EE05860024000600240106002408C
S31508082D8C1064024070600240706402402860024079
S31508082D9C2864024088600240886402404060024009
S31508082DAC40640240A0600240A0640240040080000F
S31508082DBC854B93607B68DB6C43F004027B68DA64AA
S31508082DCC7B68042283F835207B68002283F8342034
S31508082DDC7B689B6C002B03D07B689B6C7868984740
S31508082DEC7B681B681A46794B9A4272D9784B5A688B
S31508082DFC7B681B681946774B994262D07B681B68B7
S31508082E0C1946754B99425AD07B681B681946734BF9
S31508082E1C994252D07B681B681946714B99424AD01D
S31508082E2C7B681B6819466F4B994241D07B681B68AF
S31508082E3C19466D4B994238D07B681B6819466B4BFB
S31508082E4C99422FD07B681B681946694B994226D03C
S31508082E5C7B681B681946674B99421DD07B681B68AB
S31508082E6C1946654B994214D07B681B681946634BFF
S31508082E7C99420BD07B681B681946614B994202D15B
S31508082E8C4FF480131EE04FF080631BE04FF4801359
S31508082E9C18E04FF4801315E04FF4801312E04FF442
S31508082EAC80630FE04FF480630CE04FF4806309E00D
S31508082EBC4FF4806306E0102304E0102302E0102385
S31508082ECC00E010231340002B14BF01230023DBB2A8
S31508082EDCA1E17B681B681A464A4B9A4240F29480D1
S31508082EEC3B4B1A687B681B6819463A4B994262D061
S31508082EFC7B681B681946384B99425AD07B681B68FD
S31508082F0C1946364B994252D07B681B681946344B7E
S31508082F1C99424AD07B681B681946324B994241D06C
S31508082F2C7B681B681946304B994238D07B681B68F6
S31508082F3C19462E4B99422FD07B681B6819462C4B81
S31508082F4C994226D07B681B6819462A4B99421DD08C
S31508082F5C7B681B681946284B994214D07B681B68F2
S31508082F6C1946264B99420BD07B681B681946244B85
S31508082F7C994202D14FF480131EE04FF080631BE090
S31508082F8C4FF4801318E04FF4801315E04FF48013B0
S31508082F9C12E04FF480630FE04FF480630CE04FF4B3
S31508082FAC806309E04FF4806306E0102304E01023DD
S31508082FBC02E0102300E010231340002B14BF012352
S31508082FCC0023DBB227E100BF0400800058640240E6
S31508082FDC00640240106002401064024070600240AF
S31508082FEC70640240286002402864024088600240E7
S31508082FFC886402404060024040640240A060024077
S3150808300CA0640240B86002407B681B681A46704B7D
S3150808301C9A4272D96F4B5A687B681B6819466E4B6D
S3150808302C994262D07B681B6819466C4B99425AD0F0
S3150808303C7B681B6819466A4B994252D07B681B6891
S3150808304C1946684B99424AD07B681B681946664BE1
S3150808305C994241D07B681B681946644B994238D00B
S3150808306C7B681B681946624B99422FD07B681B688C
S3150808307C1946604B994226D07B681B6819465E4BE5
S3150808308C99421DD07B681B6819465C4B994214D02B
S3150808309C7B681B6819465A4B99420BD07B681B6888
S315080830AC1946584B994202D14FF480131EE04FF03B
S315080830BC80631BE04FF4801318E04FF4801315E077
S315080830CC4FF4801312E04FF480630FE04FF48063DB
S315080830DC0CE04FF4806309E04FF4806306E0102394
S315080830EC04E0102302E0102300E010231340002B01
S315080830FC14BF01230023DBB28DE0364B1A687B68B4
S3150808310C1B681946344B99427ED07B681B6819464E
S3150808311C324B99425AD07B681B681946304B9942F0
S3150808312C52D07B681B6819462E4B99424AD07B6845
S3150808313C1B6819462C4B994241D07B681B68194663
S3150808314C2A4B994238D07B681B681946284B9942F2
S3150808315C2FD07B681B681946264B994226D07B6864
S3150808316C1B681946244B99421DD07B681B6819465F
S3150808317C224B994214D07B681B681946204B9942F6
S3150808318C0BD07B681B6819461E4B994202D14FF423
S3150808319C80133AE04FF0806337E04FF4801334E03D
S315080831AC4FF4801331E04FF480132EE04FF480630C
S315080831BC2BE04FF4806328E04FF4806325E04FF446
S315080831CC806322E0102320E010231EE010231CE065
S315080831DC58600240006002401060024010640240C9
S315080831EC70600240706402402860024028640240FD
S315080831FC886002408864024040600240406402408D
S3150808320CA0600240A064024010231340002B14BF90
S3150808321C01230023DBB2002B00F033847B681B6880
S3150808322C1B6803F00803002B00F02B847B681B68CB
S3150808323C1B6803F48023002B00F003827B681B6849
S3150808324C1A46A04B9A426CD99F4A7B681B68194642
S3150808325C9E4B994262D07B681B6819469C4B9942CF
S3150808326C5AD07B681B6819469A4B994252D07B6888
S3150808327C1B681946984B99424AD07B681B681946AD
S3150808328C964B994241D07B681B681946944B9942D0
S3150808329C38D07B681B681946924B99422FD07B68A5
S315080832AC1B681946904B994226D07B681B681946A9
S315080832BC8E4B99421DD07B681B6819468C4B9942D4
S315080832CC14D07B681B6819468A4B99420BD07B68C5
S315080832DC1B681946884B994202D14FF480131EE095
S315080832EC4FF080631BE04FF4801318E04FF48013FB
S315080832FC15E04FF4801312E04FF480630FE04FF497
S3150808330C80630CE04FF4806309E04FF4806306E0B1
S3150808331C102304E0102302E0102300E01023D360E6
S3150808332C76E17B681B681A46744B9A426CD9664ACE
S3150808333C7B681B681946654B994262D07B681B6883
S3150808334C1946634B99425AD07B681B681946614BD8
S3150808335C994252D07B681B6819465F4B99424AD0EA
S3150808336C7B681B6819465D4B994241D07B681B687C
S3150808337C19465B4B994238D07B681B681946594BDA
S3150808338C99422FD07B681B681946574B994226D009
S3150808339C7B681B681946554B99421DD07B681B6878
S315080833AC1946534B994214D07B681B681946514BDE
S315080833BC99420BD07B681B6819464F4B994202D128
S315080833CC4FF480131EE04FF080631BE04FF4801314
S315080833DC18E04FF4801315E04FF4801312E04FF4FD
S315080833EC80630FE04FF480630CE04FF4806309E0C8
S315080833FC4FF4806306E0102304E0102302E0102340
S3150808340C00E01023936003E17B681B681A463C4B63
S3150808341C9A4240F291803B4A7B681B6819462B4BAB
S3150808342C994200F086807B681B681946284B994296
S3150808343C7DD07B681B681946264B994275D07B68E4
S3150808344C1B681946244B99426DD07B681B6819462C
S3150808345C224B994264D07B681B681946204B9942C3
S3150808346C5BD07B681B6819461E4B994252D07B6801
S3150808347C1B6819461C4B994249D07B681B68194628
S3150808348C1A4B994240D07B681B681946184B9942C7
S3150808349C14D07B681B681946164B99420BD07B6867
S315080834AC1B681946144B994202D14FF4801341E014
S315080834BC4FF080633EE04FF480133BE04FF48013E3
S315080834CC38E000BF586402400064024010600240AD
S315080834DC1064024070600240706402402860024022
S315080834EC28640240886002408864024040600240B2
S315080834FC40640240A0600240A0640240B8600240E2
S3150808350C58600240006002404FF4801312E04FF4F2
S3150808351C80630FE04FF480630CE04FF4806309E096
S3150808352C4FF4806306E0102304E0102302E010230E
S3150808353C00E01023D3606BE0834A7B681B68194646
S3150808354C824B994262D07B681B681946804B994214
S3150808355C5AD07B681B6819467E4B994252D07B68B1
S3150808356C1B6819467C4B99424AD07B681B681946D6
S3150808357C7A4B994241D07B681B681946784B994215
S3150808358C38D07B681B681946764B99422FD07B68CE
S3150808359C1B681946744B994226D07B681B681946D2
S315080835AC724B99421DD07B681B681946704B994219
S315080835BC14D07B681B6819466E4B99420BD07B68EE
S315080835CC1B6819466C4B994202D14FF480131EE0BE
S315080835DC4FF080631BE04FF4801318E04FF4801308
S315080835EC15E04FF4801312E04FF480630FE04FF4A4
S315080835FC80630CE04FF4806309E04FF4806306E0BF
S3150808360C102304E0102302E0102300E01023936033
S3150808361C7B681B681B6803F40023002B04D17B68A2
S3150808362C312283F8352024E27B681B681B6803F46F
S3150808363C0023002B00F01D827B68412283F8352075
S3150808364C17E27B681B681B6803F48073002B07D189
S3150808365C7B681B687A681268126822F008021A6076
S3150808366C7B681B681A46454B9A4240F28B80444A3B
S3150808367C7B681B681946354B994262D07B681B6870
S3150808368C1946334B99425AD07B681B681946314BF5
S3150808369C994252D07B681B6819462F4B99424AD0D7
S315080836AC7B681B6819462D4B994241D07B681B6869
S315080836BC19462B4B994238D07B681B681946294BF7
S315080836CC99422FD07B681B681946274B994226D0F6
S315080836DC7B681B681946254B99421DD07B681B6865
S315080836EC1946234B994214D07B681B681946214BFB
S315080836FC99420BD07B681B6819461F4B994202D115
S3150808370C4FF480131EE04FF080631BE04FF48013D0
S3150808371C18E04FF4801315E04FF4801312E04FF4B9
S3150808372C80630FE04FF480630CE04FF4806309E084
S3150808373C4FF4806306E0102304E0102302E01023FC
S3150808374C00E01023D36090E100600240106002404C
S3150808375C106402407060024070640240286002409F
S3150808376C286402408860024088640240406002402F
S3150808377C40640240A0600240A064024058640240BB
S3150808378C006402407B681B681A469F4B9A426CD9A0
S3150808379C9E4A7B681B6819469D4B994262D07B6882
S315080837AC1B6819469B4B99425AD07B681B68194665
S315080837BC994B994252D07B681B681946974B994284
S315080837CC4AD07B681B681946954B994241D07B6849
S315080837DC1B681946934B994238D07B681B6819465F
S315080837EC914B99422FD07B681B6819468F4B994287
S315080837FC26D07B681B6819468D4B99421DD07B6869
S3150808380C1B6819468B4B994214D07B681B6819465A
S3150808381C894B99420BD07B681B681946874B99428A
S3150808382C02D14FF480131EE04FF080631BE04FF46F
S3150808383C801318E04FF4801315E04FF4801312E048
S3150808384C4FF480630FE04FF480630CE04FF4806309
S3150808385C09E04FF4806306E0102304E0102302E025
S3150808386C102300E010239360FFE07B681B681A4658
S3150808387C734B9A426CD9734A7B681B681946644B16
S3150808388C994262D07B681B681946624B99425AD092
S3150808389C7B681B681946604B994252D07B681B6833
S315080838AC19465E4B99424AD07B681B6819465C4B8D
S315080838BC994241D07B681B6819465A4B994238D0AD
S315080838CC7B681B681946584B99422FD07B681B682E
S315080838DC1946564B994226D07B681B681946544B91
S315080838EC99421DD07B681B681946524B994214D0CD
S315080838FC7B681B681946504B99420BD07B681B682A
S3150808390C19464E4B994202D14FF480131EE04FF0DC
S3150808391C80631BE04FF4801318E04FF4801315E00E
S3150808392C4FF4801312E04FF480630FE04FF4806372
S3150808393C0CE04FF4806309E04FF4806306E010232B
S3150808394C04E0102302E0102300E01023D3608CE077
S3150808395C3C4A7B681B6819462D4B994200F08380B4
S3150808396C7B681B6819462B4B99427AD07B681B686F
S3150808397C1946294B994272D07B681B681946274BFE
S3150808398C99426AD07B681B681946254B994261D0BF
S3150808399C7B681B681946234B994258D07B681B6869
S315080839AC1946214B99424FD07B681B6819461F4B01
S315080839BC994226D07B681B6819461D4B99421DD01F
S315080839CC7B681B6819461B4B994214D07B681B6885
S315080839DC1946194B99420BD07B681B681946174B25
S315080839EC994202D14FF480133EE04FF080633BE0D6
S315080839FC4FF4801338E04FF4801335E04FF48013F6
S31508083A0C32E04FF480632FE0B8600240006402404D
S31508083A1C10600240106402407060024070640240F4
S31508083A2C2860024028640240886002408864024084
S31508083A3C4060024040640240A0600240A064024014
S31508083A4C58600240006002404FF480630CE04FF463
S31508083A5C806309E04FF4806306E0102304E0102322
S31508083A6C02E0102300E0102393607B68312283F868
S31508083A7C35207B681B6C002B03D07B681B6C78681D
S31508083A8C98477B681B681A46774B9A4272D9774BC4
S31508083A9C5A687B681B681946754B994262D07B68CD
S31508083AAC1B681946734B99425AD07B681B6819468A
S31508083ABC714B994252D07B681B6819466F4B9942D1
S31508083ACC4AD07B681B6819466D4B994241D07B686E
S31508083ADC1B6819466B4B994238D07B681B68194684
S31508083AEC694B99422FD07B681B681946674B9942D4
S31508083AFC26D07B681B681946654B99421DD07B688E
S31508083B0C1B681946634B994214D07B681B6819467F
S31508083B1C614B99420BD07B681B6819465F4B9942D7
S31508083B2C02D14FF400131EE04FF000631BE04FF46C
S31508083B3C001318E04FF4001315E04FF4001312E0C5
S31508083B4C4FF400630FE04FF400630CE04FF4006386
S31508083B5C09E04FF4006306E0202304E0202302E082
S31508083B6C202300E020231340002B14BF0123002335
S31508083B7CDBB29EE17B681B681A46494B9A4240F2AF
S31508083B8C91803A4B1A687B681B681946384B9942D8
S31508083B9C62D07B681B681946364B99425AD07B68A3
S31508083BAC1B681946344B994252D07B681B681946D0
S31508083BBC324B99424AD07B681B681946304B994256
S31508083BCC41D07B681B6819462E4B994238D07B68BE
S31508083BDC1B6819462C4B99422FD07B681B681946CB
S31508083BEC2A4B994226D07B681B681946284B99425A
S31508083BFC1DD07B681B681946264B994214D07B68DE
S31508083C0C1B681946244B99420BD07B681B681946C6
S31508083C1C224B994202D14FF400131EE04FF0006371
S31508083C2C1BE04FF4001318E04FF4001315E04FF49B
S31508083C3C001312E04FF400630FE04FF400630CE036
S31508083C4C4FF4006309E04FF4006306E0202304E010
S31508083C5C202302E0202300E020231340002B14BF66
S31508083C6C01230023DBB224E15864024000640240B5
S31508083C7C1060024010640240706002407064024092
S31508083C8C2860024028640240886002408864024022
S31508083C9C4060024040640240A0600240A0640240B2
S31508083CACB86002407B681B681A46704B9A4272D9F0
S31508083CBC6F4B5A687B681B6819466E4B994262D0DB
S31508083CCC7B681B6819466C4B99425AD07B681B68EB
S31508083CDC19466A4B994252D07B681B681946684B39
S31508083CEC99424AD07B681B681946664B994241D05B
S31508083CFC7B681B681946644B994238D07B681B68E5
S31508083D0C1946624B99422FD07B681B681946604B3B
S31508083D1C994226D07B681B6819465E4B99421DD07A
S31508083D2C7B681B6819465C4B994214D07B681B68E0
S31508083D3C19465A4B99420BD07B681B681946584B3F
S31508083D4C994202D14FF400131EE04FF000631BE0B2
S31508083D5C4FF4001318E04FF4001315E04FF4001352
S31508083D6C12E04FF400630FE04FF400630CE04FF4D5
S31508083D7C006309E04FF4006306E0202304E02023DF
S31508083D8C02E0202300E020231340002B14BF012354
S31508083D9C0023DBB28DE0364B1A687B681B6819461C
S31508083DAC344B99427ED07B681B681946324B99422C
S31508083DBC5AD07B681B681946304B994252D07B6897
S31508083DCC1B6819462E4B99424AD07B681B681946BC
S31508083DDC2C4B994241D07B681B6819462A4B994249
S31508083DEC38D07B681B681946284B99422FD07B68B4
S31508083DFC1B681946264B994226D07B681B681946B8
S31508083E0C244B99421DD07B681B681946224B99424C
S31508083E1C14D07B681B681946204B99420BD07B68D3
S31508083E2C1B6819461E4B994202D14FF400133AE007
S31508083E3C4FF0006337E04FF4001334E04FF40013E7
S31508083E4C31E04FF400132EE04FF400632BE04FF4E7
S31508083E5C006328E04FF4006325E04FF4006322E082
S31508083E6C202320E020231EE020231CE05860024073
S31508083E7C0060024010600240106402407060024004
S31508083E8C7064024028600240286402408860024038
S31508083E9C886402404060024040640240A0600240C8
S31508083EACA064024020231340002B14BF01230023CF
S31508083EBCDBB2002B00F045847B681B681B6803F093
S31508083ECC1003002B00F03D847B681B681B6803F401
S31508083EDC8023002B00F00D827B681B681A46A04BC2
S31508083EEC9A426CD99F4A7B681B6819469E4B99421D
S31508083EFC62D07B681B6819469C4B99425AD07B68DA
S31508083F0C1B6819469A4B994252D07B681B68194606
S31508083F1C984B99424AD07B681B681946964B994226
S31508083F2C41D07B681B681946944B994238D07B68F4
S31508083F3C1B681946924B99422FD07B681B68194601
S31508083F4C904B994226D07B681B6819468E4B99422A
S31508083F5C1DD07B681B6819468C4B994214D07B6814
S31508083F6C1B6819468A4B99420BD07B681B681946FD
S31508083F7C884B994202D14FF400131EE04FF00063A8
S31508083F8C1BE04FF4001318E04FF4001315E04FF438
S31508083F9C001312E04FF400630FE04FF400630CE0D3
S31508083FAC4FF4006309E04FF4006306E0202304E0AD
S31508083FBC202302E0202300E02023D36076E17B68E7
S31508083FCC1B681A46744B9A426CD9664A7B681B68F6
S31508083FDC1946654B994262D07B681B681946634B30
S31508083FEC99425AD07B681B681946614B994252D03C
S31508083FFC7B681B6819465F4B99424AD07B681B68D5
S3150808400C19465D4B994241D07B681B6819465B4B30
S3150808401C994238D07B681B681946594B99422FD058
S3150808402C7B681B681946574B994226D07B681B68D0
S3150808403C1946554B99421DD07B681B681946534B34
S3150808404C994214D07B681B681946514B99420BD078
S3150808405C7B681B6819464F4B994202D14FF40013DB
S3150808406C1EE04FF000631BE04FF4001318E04FF402
S3150808407C001315E04FF4001312E04FF400630FE039
S3150808408C4FF400630CE04FF4006309E04FF4006347
S3150808409C06E0202304E0202302E0202300E0202366
S315080840AC936003E17B681B681A463C4B9A4240F2BC
S315080840BC91803B4A7B681B6819462B4B994200F042
S315080840CC86807B681B681946284B99427DD07B6885
S315080840DC1B681946264B994275D07B681B68194686
S315080840EC244B99426DD07B681B681946224B99421A
S315080840FC64D07B681B681946204B99425BD07B6851
S3150808410C1B6819461E4B994252D07B681B68194680
S3150808411C1C4B994249D07B681B6819461A4B99421D
S3150808412C40D07B681B681946184B994214D07B6893
S3150808413C1B681946164B99420BD07B681B6819469F
S3150808414C144B994202D14FF4001341E04FF0006327
S3150808415C3EE04FF400133BE04FF4001338E000BF81
S3150808416C5864024000640240106002401064024021
S3150808417C706002407064024028600240286402405D
S3150808418C88600240886402404060024040640240ED
S3150808419CA0600240A0640240B86002405860024021
S315080841AC006002404FF4001312E04FF400630FE06E
S315080841BC4FF400630CE04FF4006309E04FF4006316
S315080841CC06E0202304E0202302E0202300E0202335
S315080841DCD3606BE0884A7B681B681946874B9942FB
S315080841EC62D07B681B681946854B99425AD07B68FE
S315080841FC1B681946834B994252D07B681B6819462B
S3150808420C814B99424AD07B681B6819467F4B994261
S3150808421C41D07B681B6819467D4B994238D07B6818
S3150808422C1B6819467B4B99422FD07B681B68194625
S3150808423C794B994226D07B681B681946774B994265
S3150808424C1DD07B681B681946754B994214D07B6838
S3150808425C1B681946734B99420BD07B681B68194621
S3150808426C714B994202D14FF400131EE04FF00063CC
S3150808427C1BE04FF4001318E04FF4001315E04FF445
S3150808428C001312E04FF400630FE04FF400630CE0E0
S3150808429C4FF4006309E04FF4006306E0202304E0BA
S315080842AC202302E0202300E0202393607B681B6808
S315080842BC1B6803F40023002B09D17B685B6C002B65
S315080842CC00F03F827B685B6C7868984739E27B68B4
S315080842DC1B681B6803F40023002B00F032827B68EA
S315080842ECDB6B002B00F02D827B68DB6B78689847B4
S315080842FC27E27B681B681B6803F48073002B07D1BD
S3150808430C7B681B687A681268126822F010021A60B1
S3150808431C7B681B681A46454B9A4240F28B80444A7E
S3150808432C7B681B681946354B994262D07B681B68B3
S3150808433C1946334B99425AD07B681B681946314B38
S3150808434C994252D07B681B6819462F4B99424AD01A
S3150808435C7B681B6819462D4B994241D07B681B68AC
S3150808436C19462B4B994238D07B681B681946294B3A
S3150808437C99422FD07B681B681946274B994226D039
S3150808438C7B681B681946254B99421DD07B681B68A8
S3150808439C1946234B994214D07B681B681946214B3E
S315080843AC99420BD07B681B6819461F4B994202D158
S315080843BC4FF400131EE04FF000631BE04FF4001394
S315080843CC18E04FF4001315E04FF4001312E04FF4FD
S315080843DC00630FE04FF400630CE04FF4006309E048
S315080843EC4FF4006306E0202304E0202302E0202390
S315080843FC00E02023D36090E1006002401060024080
S3150808440C10640240706002407064024028600240E2
S3150808441C2864024088600240886402404060024072
S3150808442C40640240A0600240A064024058640240FE
S3150808443C006402407B681B681A469F4B9A426CD9E3
S3150808444C9E4A7B681B6819469D4B994262D07B68C5
S3150808445C1B6819469B4B99425AD07B681B681946A8
S3150808446C994B994252D07B681B681946974B9942C7
S3150808447C4AD07B681B681946954B994241D07B688C
S3150808448C1B681946934B994238D07B681B681946A2
S3150808449C914B99422FD07B681B6819468F4B9942CA
S315080844AC26D07B681B6819468D4B99421DD07B68AC
S315080844BC1B6819468B4B994214D07B681B6819469E
S315080844CC894B99420BD07B681B681946874B9942CE
S315080844DC02D14FF400131EE04FF000631BE04FF4B3
S315080844EC001318E04FF4001315E04FF4001312E00C
S315080844FC4FF400630FE04FF400630CE04FF40063CD
S3150808450C09E04FF4006306E0202304E0202302E0C8
S3150808451C202300E020239360FFE07B681B681A467B
S3150808452C734B9A426CD9734A7B681B681946644B59
S3150808453C994262D07B681B681946624B99425AD0D5
S3150808454C7B681B681946604B994252D07B681B6876
S3150808455C19465E4B99424AD07B681B6819465C4BD0
S3150808456C994241D07B681B6819465A4B994238D0F0
S3150808457C7B681B681946584B99422FD07B681B6871
S3150808458C1946564B994226D07B681B681946544BD4
S3150808459C99421DD07B681B681946524B994214D010
S315080845AC7B681B681946504B99420BD07B681B686D
S315080845BC19464E4B994202D14FF400131EE04FF0A0
S315080845CC00631BE04FF4001318E04FF4001315E0D2
S315080845DC4FF4001312E04FF400630FE04FF4006336
S315080845EC0CE04FF4006309E04FF4006306E020235F
S315080845FC04E0202302E0202300E02023D3608CE08B
S3150808460C3C4A7B681B6819462D4B994200F08380F7
S3150808461C7B681B6819462B4B99427AD07B681B68B2
S3150808462C1946294B994272D07B681B681946274B41
S3150808463C99426AD07B681B681946254B994261D002
S3150808464C7B681B681946234B994258D07B681B68AC
S3150808465C1946214B99424FD07B681B6819461F4B44
S3150808466C994226D07B681B6819461D4B99421DD062
S3150808467C7B681B6819461B4B994214D07B681B68C8
S3150808468C1946194B99420BD07B681B681946174B68
S3150808469C994202D14FF400133EE04FF000633BE019
S315080846AC4FF4001338E04FF4001335E04FF40013B9
S315080846BC32E04FF400632FE0B86002400064024011
S315080846CC1060024010640240706002407064024038
S315080846DC28600240286402408860024088640240C8
S315080846EC4060024040640240A0600240A064024058
S315080846FC58600240006002404FF400630CE04FF427
S3150808470C006309E04FF4006306E0202304E0202345
S3150808471C02E0202300E0202393607B68DA6C7B6830
S3150808472CDA647B68112283F835207B68002283F8C3
S3150808473C34207B68DB6B002B03D07B68DB6B7868D3
S3150808474C98470837BD4680BD80B485B000AFF86079
S3150808475CB9607A603B60FB681B68FA68126812686D
S3150808476C22F480221A60FB681B683A685A60FB6850
S3150808477C9B68402B08D1FB681B687A689A60FB68AB
S3150808478C1B68BA68DA6007E0FB681B68BA689A603F
S3150808479CFB681B687A68DA601437BD465DF8047BD3
S315080847AC704700BF80B598B000AF78600023FB65EA
S315080847BC7B681B6803F00103002B6AD0A34B9B6824
S315080847CC03F00C03042B0BD0A04B9B6803F00C03CB
S315080847DC082B12D19D4B5B6803F48003002B0CD075
S315080847EC9A4B1B6803F40033002B05D07B685B686F
S315080847FC002B01D1012320E24BE0954B00221A70BD
S3150808480C00F096FDF8650AE000F092FD0246FB6D8D
S3150808481CD31A41F28832934201D903230DE28B4B02
S3150808482C1B6803F40033002BEED1894A7B685B6856
S3150808483CDBB213707B685B68002B15D000F078FD2B
S3150808484CF8650AE000F074FD0246FB6DD31A41F2CE
S3150808485C8832934201D90323EFE17C4B1B6803F496
S3150808486C0033002BEED014E000F062FDF8650AE080
S3150808487C00F05EFD0246FB6DD31A41F2883293426C
S3150808488C01D90323D9E1714B1B6803F40033002BB8
S3150808489CEED17B681B6803F00203002B7FD06B4BA9
S315080848AC9B6803F00C03002B0BD0684B9B6803F032
S315080848BC0C03082B2AD1654B5B6803F48003002B81
S315080848CC24D1624B1B6803F00203002B05D07B68C6
S315080848DCDB68012B01D00123AFE15C485B4B1B68F5
S315080848EC23F0F8027B681B69F821B965B96D91FA4A
S315080848FCA1F17965796D3965396DB1FA81F1F96482
S3150808490CF96CC9B28B401343036048E07B68DB68D3
S3150808491C002B2ED04F4B01221A6000F009FDF865C2
S3150808492C08E000F005FD0246FB6DD31A642B01D985
S3150808493C032382E1454B1B6803F00203002BF0D0D6
S3150808494C4248424B1B6823F0F8027B681B69F8211E
S3150808495CB964B96C91FAA1F17964796C3964396CD2
S3150808496CB1FA81F1F963F96BC9B28B401343036049
S3150808497C15E0384B00221A6000F0DAFCF86508E0F6
S3150808498C00F0D6FC0246FB6DD31A642B01D9032317
S3150808499C53E12E4B1B6803F00203002BF0D17B68FE
S315080849AC1B6803F00803002B30D07B685B69002B67
S315080849BC16D0294B01221A6000F0BAFCF86508E0F3
S315080849CC00F0B6FC0246FB6DD31A642B01D90323F7
S315080849DC33E11E4B5B6F03F00203002BF0D015E096
S315080849EC1D4B00221A6000F0A3FCF86508E000F0DD
S315080849FC9FFC0246FB6DD31A642B01D903231CE1D1
S31508084A0C124B5B6F03F00203002BF0D17B681B6813
S31508084A1C03F00403002B75D00C4A0C4B1B6C43F0A3
S31508084A2C805313640D4A0D4B1B6843F4807313604B
S31508084A3C00F07EFCF86513E000F07AFC0246FB6D84
S31508084A4CD31A642B0CD90323F7E000BF00380240AD
S31508084A5C0238024000004742800E47420070004068
S31508084A6C784B1B6803F48073002BE5D0764B002231
S31508084A7C1A7000F05DFCF8650AE000F059FC02466D
S31508084A8CFB6DD31A41F28832934201D90323D4E039
S31508084A9C6E4B1B6F03F00203002BEED16A4A7B6838
S31508084AAC9B68DBB213707B689B68012B15D100F0E9
S31508084ABC3FFCF8650AE000F03BFC0246FB6DD31A8E
S31508084ACC41F28832934201D90323B6E05F4B1B6F38
S31508084ADC03F00203002BEED014E000F029FCF8656D
S31508084AEC0AE000F025FC0246FB6DD31A41F288321F
S31508084AFC934201D90323A0E0544B1B6F03F002031E
S31508084B0C002BEED17B689B69002B00F095804F4BE8
S31508084B1C9B6803F00C03082B00F08C807B689B6958
S31508084B2C022B70D14A4B00221A6000F001FCF8657A
S31508084B3C08E000F0FDFB0246FB6DD31A642B01D97D
S31508084B4C03237AE0414B1B6803F00073002BF0D162
S31508084B5C3E487B681A6A7B685B6A47F6C071B96314
S31508084B6CB96B91FAA1F17963796B3963396BB1FA37
S31508084B7C81F1F962F96AC9B28B401A437B689B6A58
S31508084B8C5B08013B4FF44031B962B96A91FAA1F155
S31508084B9C7962796A3962396AB1FA81F1F961F9691E
S31508084BACC9B28B401A437B68DB691A437B68DB6A94
S31508084BBC4FF07061B961B96991FAA1F179617969AE
S31508084BCC39613969B1FA81F1F960F968C9B28B406A
S31508084BDC134343F0005343601D4B01221A6000F03F
S31508084BECA7FBF86508E000F0A3FB0246FB6DD31A91
S31508084BFC642B01D9032320E0144B1B6803F00073BC
S31508084C0C002BF0D018E0124B00221A6000F090FB2B
S31508084C1CF86508E000F08CFB0246FB6DD31A642B8A
S31508084C2C01D9032309E0094B1B6803F00073002B11
S31508084C3CF0D101E0012300E0002318466037BD4691
S31508084C4C80BD00BF00700040703802400038024032
S31508084C5C6000474280B584B000AF7860396000239D
S31508084C6CFB60A64B1B6803F00F023B689A4280F060
S31508084C7C9080A24B3A68D2B21A70A04B1B6803F004
S31508084C8C0F023B689A4201D0012333E17B681B6803
S31508084C9C03F00203002B08D09949994B9B6823F01B
S31508084CACF0027B689B6813438B607B681B6803F070
S31508084CBC0103002B00F0FB807B685B68012B07D18E
S31508084CCC8F4B1B6803F40033002B15D1012311E114
S31508084CDC7B685B68022B07D1894B1B6803F000734A
S31508084CEC002B09D1012305E1854B1B6803F0020348
S31508084CFC002B01D10123FDE08149814B9B6823F0E8
S31508084D0C03027B685B6813438B6000F011FBF86041
S31508084D1C7B685B68012B12D10AE000F009FB024696
S31508084D2CFB68D31A41F28832934201D90323E1E08E
S31508084D3C734B9B6803F00C03042BEED1B7E07B6826
S31508084D4C5B68022B12D10AE000F0F2FA0246FB68FD
S31508084D5CD31A41F28832934201D90323CAE0684B25
S31508084D6C9B6803F00C03082BEED1A0E00AE000F0D0
S31508084D7CDFFA0246FB68D31A41F28832934201D904
S31508084D8C0323B7E05E4B9B6803F00C03002BEED1AC
S31508084D9C8DE07B681B6803F00203002B08D0584982
S31508084DAC574B9B6823F0F0027B689B6813438B6010
S31508084DBC7B681B6803F00103002B6BD07B685B6868
S31508084DCC012B07D14E4B1B6803F40033002B15D166
S31508084DDC01238FE07B685B68022B07D1484B1B685D
S31508084DEC03F00073002B09D1012383E0444B1B689D
S31508084DFC03F00203002B01D101237BE04049404B09
S31508084E0C9B6823F003027B685B6813438B6000F08E
S31508084E1C8FFAF8607B685B68012B12D10AE000F000
S31508084E2C87FA0246FB68D31A41F28832934201D9AB
S31508084E3C03235FE0324B9B6803F00C03042BEED17B
S31508084E4C28E07B685B68022B12D10AE000F070FA3E
S31508084E5C0246FB68D31A41F28832934201D90323D6
S31508084E6C48E0274B9B6803F00C03082BEED111E09E
S31508084E7C0AE000F05DFA0246FB68D31A41F288325A
S31508084E8C934201D9032335E01D4B9B6803F00C03A9
S31508084E9C002BEED1194B3A68D2B21A70174B1B680D
S31508084EAC03F00F023B689A4201D0012322E07B6883
S31508084EBC1B6803F00403002B08D01149104B9B6898
S31508084ECC23F4E0527B68DB6813438B607B681B68AA
S31508084EDC03F00803002B09D00949094B9B6823F4EE
S31508084EEC60427B681B69DB0013438B60002000F06B
S31508084EFCF5F9002318461037BD4680BD003C02401C
S31508084F0C0038024080B491B000AF00237B630023BD
S31508084F1CFB6300233B630023BB633D4B9B6803F091
S31508084F2C0C03042B06D0082B07D0002B66D1394B5B
S31508084F3CBB6366E0384BBB6363E0354B5B6803F0D1
S31508084F4C3F037B63324B5B6803F48003002B1CD04E
S31508084F5C314A7B6BB2FBF3F22D4B596847F6C07393
S31508084F6C0B4047F6C071F962F96A91FAA1F1B96270
S31508084F7CB96A7962796AB1FA81F13962396AC9B258
S31508084F8CCB4003FB02F3FB631BE0224A7B6BB2FBA9
S31508084F9CF3F21F4B596847F6C0730B4047F6C071B6
S31508084FACF961F96991FAA1F1B961B969796179690E
S31508084FBCB1FA81F139613969C9B2CB4003FB02F3FD
S31508084FCCFB63134B5B6803F440334FF44032FA60C7
S31508084FDCFA6892FAA2F2BA60BA687A607A68B2FA89
S31508084FEC82F23A603A68D2B2D34001335B003B632B
S31508084FFCFA6B3B6BB2FBF3F3BB6302E0054BBB6383
S3150808500C00BFBB6B18464437BD465DF8047B704732
S3150808501C003802400024F40000127A0080B584B0E7
S3150808502C00AFFFF76FFF01460F4B9B6803F0F003C1
S3150808503CF022FA60FA6892FAA2F2BA60BA687A604A
S3150808504C7A68B2FA82F23A603A68D2B2D340074A18
S3150808505CD35C21FA03F3064A1360054B1B681846FA
S3150808506C1037BD4680BD00BF0038024080F20808DC
S3150808507CAC01002080B584B000AFFFF7CFFF01461E
S3150808508C0D4B9B6803F4E0534FF4E052FA60FA6848
S3150808509C92FAA2F2BA60BA687A607A68B2FA82F2B6
S315080850AC3A603A68D2B2D340044AD35C21FA03F37D
S315080850BC18461037BD4680BD0038024080F20808ED
S315080850CC80B584B000AFFFF7A9FF01460D4B9B6866
S315080850DC03F460434FF46042FA60FA6892FAA2F253
S315080850ECBA60BA687A607A68B2FA82F23A603A684A
S315080850FCD2B2D340044AD35C21FA03F318461037C4
S3150808510CBD4680BD0038024080F2080880B489B0D4
S3150808511C00AF78600B46FB700023FB61FB78002B0D
S3150808512C02D10023FB6110E0FB78012B03D14FF465
S3150808513C8073FB6109E0FB78022B03D14FF40073EB
S3150808514CFB6102E04FF44073FB617B680B2B02D9B9
S3150808515C7B6804337B601A4A194B1B6923F4407322
S3150808516C13611749164B1A69FB6913430B61144AE1
S3150808517C134B1B6923F0F8031361F823BB61BB694E
S3150808518C93FAA3F37B617B693B613B69B3FA83F3B7
S3150808519CFB60FB68DBB21A467B68934043F0020354
S315080851AC0749074A126913430B61054A044B1B69DD
S315080851BC43F4803313612437BD465DF8047B704786
S315080851CC003C024080B58AB000AF00237B62304AA7
S315080851DC2F4B1B6C43F0805313644FF480333B629C
S315080851EC3B6A93FAA3F3FB61FB69BB61BB69B3FA28
S315080851FC83F37B617B69DBB29B0003F1844303F57C
S3150808520C60231A460123136000F092F8786209E0C5
S3150808521C00F08EF802467B6AD31AB3F57A7F01D961
S3150808522C032331E01B4B5B6803F48033002BEFD068
S3150808523C4FF400333B613B6993FAA3F3FB60FB68B5
S3150808524CBB60BB68B3FA83F37B607B68DBB29B00F5
S3150808525C03F1844303F560231A460123136000F00F
S3150808526C67F8786209E000F063F802467B6AD31A95
S3150808527CB3F57A7F01D9032306E0064B5B6803F47A
S3150808528C0033002BEFD0002318462837BD4680BDBF
S3150808529C003802400070004080B500AF0E4A0E4B2D
S315080852AC1B6843F4007313600B4A0B4B1B6843F4D7
S315080852BC80631360084A084B1B6843F480731360B1
S315080852CC032000F00BF9002000F008F8FBF708FBA0
S315080852DC0023184680BD00BF003C024080B582B04A
S315080852EC00AF7860FFF79AFE0246094BA3FB022328
S315080852FC9B09184600F026F94FF0FF30796800220A
S3150808530C00F0F6F8002318460837BD4680BD00BFDE
S3150808531CD34D621080B400AF044B1B680133034AA3
S3150808532C1360BD465DF8047B704700BF100B002060
S3150808533C80B400AF034B1B681846BD465DF8047B62
S3150808534C704700BF100B002080B485B000AF78609A
S3150808535C7B6803F00703FB600C4BDB68BB60BA6819
S3150808536C4FF6FF031340BB60FB681A02BB6813436E
S3150808537C43F0BF6343F40033BB60044ABB68D3608D
S3150808538C1437BD465DF8047B704700BF00ED00E096
S3150808539C80B400AF044BDB6803F4E0631B0A1846B9
S315080853ACBD465DF8047B704700ED00E080B483B019
S315080853BC00AF0346FB71084997F907305B09FA7978
S315080853CC02F01F02012000FA02F241F823200C37DA
S315080853DCBD465DF8047B704700E100E080B483B0F5
S315080853EC00AF03463960FB7197F90730002B0BDAC7
S315080853FC0D49FB7903F00F03043B3A68D2B2120144
S3150808540CD2B20B441A7609E0084997F907303A6874
S3150808541CD2B21201D2B20B4483F800230C37BD461C
S3150808542C5DF8047B704700BF00ED00E000E100E082
S3150808543C80B489B000AFF860B9607A60FB6803F08D
S3150808544C0703FB61FB69C3F10703042B28BF042375
S3150808545CBB61FB690433062B02D9FB69033B00E0E5
S3150808546C00237B61BB69012202FA03F3013B1A4646
S3150808547CBB681A407B699A407B69012101FA03F3D8
S3150808548C013B19467B680B40134318462437BD461F
S3150808549C5DF8047B704700BF80B582B000AF7860B2
S315080854AC7B68013BB3F1807F01D301230FE00A4ADD
S315080854BC7B68013B53604FF0FF300F21FFF78EFFD7
S315080854CC054B00229A60044B07221A6000231846DB
S315080854DC0837BD4680BD00BF10E000E080B582B035
S315080854EC00AF78607868FFF72FFF0837BD4680BD90
S315080854FC80B586B000AF0346B9607A60FB730023A3
S3150808550C7B61FFF745FF78617869B9687A68FFF7B0
S3150808551C8FFF024697F90F3018461146FFF75EFFBC
S3150808552C1837BD4680BD00BF80B582B000AF0346AC
S3150808553CFB7197F907301846FFF738FF0837BD4649
S3150808554C80BD00BF80B582B000AF78607868FFF779
S3150808555CA3FF034618460837BD4680BD80B500AF7D
S3150808556CFBF704F880BD00BF80B582B000AF786041
